{
  "_format": "hh-sol-artifact-1",
  "contractName": "JAssetRewardDistribution",
  "sourceName": "contracts/JAssetRewardDistribution.sol",
  "abi": [
    {
      "inputs": [
        {
          "internalType": "contract IJellyToken",
          "name": "_token",
          "type": "address"
        },
        {
          "internalType": "address",
          "name": "_owner",
          "type": "address"
        },
        {
          "internalType": "address",
          "name": "_pendingOwner",
          "type": "address"
        }
      ],
      "stateMutability": "nonpayable",
      "type": "constructor"
    },
    {
      "inputs": [],
      "name": "Claim_AlreadyClaimed",
      "type": "error"
    },
    {
      "inputs": [],
      "name": "Claim_FutureEpoch",
      "type": "error"
    },
    {
      "inputs": [],
      "name": "Claim_LenMissmatch",
      "type": "error"
    },
    {
      "inputs": [],
      "name": "Claim_WrongProof",
      "type": "error"
    },
    {
      "inputs": [],
      "name": "Claim_ZeroAmount",
      "type": "error"
    },
    {
      "inputs": [],
      "name": "Ownable__CallerIsNotOwner",
      "type": "error"
    },
    {
      "inputs": [],
      "name": "Ownable__CannotSetOwnerToZeroAddress",
      "type": "error"
    },
    {
      "inputs": [],
      "name": "Ownable__CannotTransferToSelf",
      "type": "error"
    },
    {
      "inputs": [],
      "name": "Ownable__MustBeProposedOwner",
      "type": "error"
    },
    {
      "anonymous": false,
      "inputs": [
        {
          "indexed": false,
          "internalType": "address",
          "name": "claimant",
          "type": "address"
        },
        {
          "indexed": false,
          "internalType": "uint96",
          "name": "epoch",
          "type": "uint96"
        },
        {
          "indexed": false,
          "internalType": "uint256",
          "name": "balance",
          "type": "uint256"
        }
      ],
      "name": "Claimed",
      "type": "event"
    },
    {
      "anonymous": false,
      "inputs": [
        {
          "indexed": false,
          "internalType": "address",
          "name": "vestingContract",
          "type": "address"
        }
      ],
      "name": "ContractChanged",
      "type": "event"
    },
    {
      "anonymous": false,
      "inputs": [
        {
          "indexed": false,
          "internalType": "uint96",
          "name": "epoch",
          "type": "uint96"
        },
        {
          "indexed": false,
          "internalType": "bytes32",
          "name": "merkleRoot",
          "type": "bytes32"
        },
        {
          "indexed": false,
          "internalType": "string",
          "name": "ipfs",
          "type": "string"
        }
      ],
      "name": "EpochAdded",
      "type": "event"
    },
    {
      "anonymous": false,
      "inputs": [
        {
          "indexed": true,
          "internalType": "address",
          "name": "from",
          "type": "address"
        },
        {
          "indexed": true,
          "internalType": "address",
          "name": "to",
          "type": "address"
        }
      ],
      "name": "OwnershipTransferCanceled",
      "type": "event"
    },
    {
      "anonymous": false,
      "inputs": [
        {
          "indexed": true,
          "internalType": "address",
          "name": "from",
          "type": "address"
        },
        {
          "indexed": true,
          "internalType": "address",
          "name": "to",
          "type": "address"
        }
      ],
      "name": "OwnershipTransferRequested",
      "type": "event"
    },
    {
      "anonymous": false,
      "inputs": [
        {
          "indexed": true,
          "internalType": "address",
          "name": "from",
          "type": "address"
        },
        {
          "indexed": true,
          "internalType": "address",
          "name": "to",
          "type": "address"
        }
      ],
      "name": "OwnershipTransferred",
      "type": "event"
    },
    {
      "inputs": [],
      "name": "acceptOwnership",
      "outputs": [],
      "stateMutability": "nonpayable",
      "type": "function"
    },
    {
      "inputs": [],
      "name": "cancelOwnershipTransfer",
      "outputs": [],
      "stateMutability": "nonpayable",
      "type": "function"
    },
    {
      "inputs": [
        {
          "internalType": "uint96",
          "name": "_epochId",
          "type": "uint96"
        },
        {
          "internalType": "uint256",
          "name": "_amount",
          "type": "uint256"
        },
        {
          "internalType": "bytes32[]",
          "name": "_merkleProof",
          "type": "bytes32[]"
        },
        {
          "internalType": "bool",
          "name": "_isVesting",
          "type": "bool"
        }
      ],
      "name": "claimWeek",
      "outputs": [],
      "stateMutability": "nonpayable",
      "type": "function"
    },
    {
      "inputs": [
        {
          "internalType": "uint96[]",
          "name": "_epochIds",
          "type": "uint96[]"
        },
        {
          "internalType": "uint256[]",
          "name": "_amounts",
          "type": "uint256[]"
        },
        {
          "internalType": "bytes32[][]",
          "name": "_merkleProofs",
          "type": "bytes32[][]"
        },
        {
          "internalType": "bool",
          "name": "_isVesting",
          "type": "bool"
        }
      ],
      "name": "claimWeeks",
      "outputs": [],
      "stateMutability": "nonpayable",
      "type": "function"
    },
    {
      "inputs": [
        {
          "internalType": "uint256",
          "name": "",
          "type": "uint256"
        },
        {
          "internalType": "address",
          "name": "",
          "type": "address"
        }
      ],
      "name": "claimed",
      "outputs": [
        {
          "internalType": "bool",
          "name": "",
          "type": "bool"
        }
      ],
      "stateMutability": "view",
      "type": "function"
    },
    {
      "inputs": [
        {
          "internalType": "bytes32",
          "name": "_merkleRoot",
          "type": "bytes32"
        },
        {
          "internalType": "string",
          "name": "_ipfs",
          "type": "string"
        }
      ],
      "name": "createEpoch",
      "outputs": [
        {
          "internalType": "uint96",
          "name": "epochId",
          "type": "uint96"
        }
      ],
      "stateMutability": "nonpayable",
      "type": "function"
    },
    {
      "inputs": [],
      "name": "epoch",
      "outputs": [
        {
          "internalType": "uint96",
          "name": "",
          "type": "uint96"
        }
      ],
      "stateMutability": "view",
      "type": "function"
    },
    {
      "inputs": [],
      "name": "getPendingOwner",
      "outputs": [
        {
          "internalType": "address",
          "name": "",
          "type": "address"
        }
      ],
      "stateMutability": "view",
      "type": "function"
    },
    {
      "inputs": [
        {
          "internalType": "uint256",
          "name": "",
          "type": "uint256"
        }
      ],
      "name": "merkleRoots",
      "outputs": [
        {
          "internalType": "bytes32",
          "name": "",
          "type": "bytes32"
        }
      ],
      "stateMutability": "view",
      "type": "function"
    },
    {
      "inputs": [],
      "name": "owner",
      "outputs": [
        {
          "internalType": "address",
          "name": "",
          "type": "address"
        }
      ],
      "stateMutability": "view",
      "type": "function"
    },
    {
      "inputs": [
        {
          "internalType": "address",
          "name": "_vestingContract",
          "type": "address"
        }
      ],
      "name": "setVestingContract",
      "outputs": [],
      "stateMutability": "nonpayable",
      "type": "function"
    },
    {
      "inputs": [],
      "name": "token",
      "outputs": [
        {
          "internalType": "contract IJellyToken",
          "name": "",
          "type": "address"
        }
      ],
      "stateMutability": "view",
      "type": "function"
    },
    {
      "inputs": [
        {
          "internalType": "address",
          "name": "newOwner",
          "type": "address"
        }
      ],
      "name": "transferOwnership",
      "outputs": [],
      "stateMutability": "nonpayable",
      "type": "function"
    },
    {
      "inputs": [
        {
          "internalType": "address",
          "name": "_reciver",
          "type": "address"
        },
        {
          "internalType": "uint256",
          "name": "_epochId",
          "type": "uint256"
        },
        {
          "internalType": "uint256",
          "name": "_amount",
          "type": "uint256"
        },
        {
          "internalType": "bytes32[]",
          "name": "_merkleProof",
          "type": "bytes32[]"
        }
      ],
      "name": "verifyClaim",
      "outputs": [
        {
          "internalType": "bool",
          "name": "valid",
          "type": "bool"
        }
      ],
      "stateMutability": "view",
      "type": "function"
    }
  ],
  "bytecode": "0x60a0346200015357601f6200174638819003918201601f191683019291906001600160401b038411838510176200015857816060928492604096875283398101031262000153578051906001600160a01b03808316830362000153578062000077856200006f602086016200016e565b94016200016e565b92169182156200014257600080546001600160a01b03199081169094179055169081158015620000da575b505050608052516115c2908162000184823960805181818160ea015281816102f2015281816103f401528181610a8e0152610b500152f35b6200013157338214620001205781906001541617600155337fed8889f560326eb138920d842192f0eb3dd22b4f139c87a2c57538e05bae1278600080a3388080620000a2565b8351631ee7a57760e01b8152600490fd5b835163a3c419a160e01b8152600490fd5b845163a3c419a160e01b8152600490fd5b600080fd5b634e487b7160e01b600052604160045260246000fd5b51906001600160a01b0382168203620001535756fe608060408181526004918236101561001657600080fd5b600092833560e01c918263120aa87714610dd15750816323452b9c14610d2557816330dd851a146108ca57816371c5ecb1146108a257816374991569146107e557816379ba50971461072e5781638da5cb5b146106fb578163900cf0cf146106da57816393596c7b146106a5578163cb7fcaa714610519578163eb0d07f5146104bf578163f27fef2714610228578163f2fde38b14610112575063fc0c546a146100bf57600080fd5b3461010e578160031936011261010e576020905173ffffffffffffffffffffffffffffffffffffffff7f0000000000000000000000000000000000000000000000000000000000000000168152f35b5080fd5b9050346102245760206003193601126102245761012d610e25565b73ffffffffffffffffffffffffffffffffffffffff908185541633036101fc57169182156101d6573383146101b0575050807fffffffffffffffffffffffff00000000000000000000000000000000000000006001541617600155337fed8889f560326eb138920d842192f0eb3dd22b4f139c87a2c57538e05bae12788380a380f35b517f1ee7a577000000000000000000000000000000000000000000000000000000008152fd5b517fa3c419a1000000000000000000000000000000000000000000000000000000008152fd5b8284517f021943c0000000000000000000000000000000000000000000000000000000008152fd5b8280fd5b8391503461010e57608060031936011261010e578035926bffffffffffffffffffffffff841684036104ba5760243560443567ffffffffffffffff811161039d576102769036908501610f00565b9461027f610f5e565b90821561049157859683610292926110c9565b156103d957825482517f095ea7b300000000000000000000000000000000000000000000000000000000815273ffffffffffffffffffffffffffffffffffffffff91821681860190815260208181018590529082908190604001038189867f0000000000000000000000000000000000000000000000000000000000000000165af180156103cf576103a1575b5083541692833b1561039d5782517f4f56392d0000000000000000000000000000000000000000000000000000000081529081019182523360208301529284918491908290849082906040015b03925af1908115610394575061038157505080f35b61038a90610e48565b6103915780f35b80fd5b513d84823e3d90fd5b8480fd5b6103c19060203d81116103c8575b6103b98183610ea7565b810190611041565b508661031f565b503d6103af565b84513d88823e3d90fd5b9173ffffffffffffffffffffffffffffffffffffffff9391937f000000000000000000000000000000000000000000000000000000000000000016936104238460011c8095611005565b853b1561048d578151927f42966c68000000000000000000000000000000000000000000000000000000008452830152828260248183895af19081156103945750610479575b50506104769133906112f0565b80f35b61048290610e48565b610224578284610469565b8380fd5b505050517fa1ac0ddb000000000000000000000000000000000000000000000000000000008152fd5b600080fd5b905034610224576080600319360112610224576104da610e25565b926064359067ffffffffffffffff821161039157509261050261051092602095369101610f00565b906044359060243590611209565b90519015158152f35b83833461010e578060031936011261010e57602435833567ffffffffffffffff821161048d573660238301121561048d578185013561055781610f6d565b9261056485519485610ea7565b81845236602483830101116106a157818692602460209301838701378401015273ffffffffffffffffffffffffffffffffffffffff9384815416330361067957855460a01c948582526002602052828583205560018601916bffffffffffffffffffffffff831161064d5750957feea6da2d05f40dc6ade57cdcce2cec56cf20a539658d966484bf866c799a622b9392916020977fffffffffffffffffffffffff000000000000000000000000000000000000000083549260a01b1691161790556106448451928392878452888401526060868401526060830190610fa7565b0390a151908152f35b806011897f4e487b71000000000000000000000000000000000000000000000000000000006024945252fd5b8584517f021943c0000000000000000000000000000000000000000000000000000000008152fd5b8580fd5b50503461010e578160031936011261010e5760209073ffffffffffffffffffffffffffffffffffffffff600154169051908152f35b905034610224578260031936011261022457602092505460a01c9051908152f35b50503461010e578160031936011261010e5773ffffffffffffffffffffffffffffffffffffffff60209254169051908152f35b919050346102245782600319360112610224576001549173ffffffffffffffffffffffffffffffffffffffff9182841633036107bf57505082547fffffffffffffffffffffffff00000000000000000000000000000000000000008082163390811786559316600155167f8be0079c531659141344cd1fd0a4f28419497f9722a3daafe3b4186f6b6457e08380a380f35b517f4ecbaa2e000000000000000000000000000000000000000000000000000000008152fd5b9190503461022457602060031936011261022457610801610e25565b73ffffffffffffffffffffffffffffffffffffffff9081855416330361087a57917f1aa4624e6a8f4d986b17a86218766a92e74d48ca0cf81238069111e780bce2d393916020931691827fffffffffffffffffffffffff000000000000000000000000000000000000000082541617905551908152a180f35b5050517f021943c0000000000000000000000000000000000000000000000000000000008152fd5b9050346102245760206003193601126102245760209282913581526002845220549051908152f35b8391503461010e57608060031936011261010e5780359267ffffffffffffffff80851161048d573660238601121561048d57848301359461090a86610ee8565b9161091784519384610ea7565b8683526020918284016024809960051b83010191368311610d21578901905b828210610cfd57505050863590808211610cf95736602383011215610cf957818601359161096383610ee8565b9261097087519485610ea7565b808452898585019160051b83010191368311610cf5578a869101915b838310610ce5575050505060443590808211610ce15736602383011215610ce157818701356109ba81610ee8565b926109c788519485610ea7565b8184528a8685019260051b82010192368411610cdd578b8201925b848410610cb25750505050506109f6610f5e565b9184519181518314801590610ca7575b610c7f57949190889589935b838510610bf0575050851592506104919150505715610b3557835483517f095ea7b300000000000000000000000000000000000000000000000000000000815273ffffffffffffffffffffffffffffffffffffffff91821681870190815260208101859052969750879691929182908290819060400103818a877f0000000000000000000000000000000000000000000000000000000000000000165af18015610b2b57610b0d575b505083541692833b1561039d5782517f4f56392d00000000000000000000000000000000000000000000000000000000815290810191825233602083015292849184919082908490829060400161036c565b81610b2392903d106103c8576103b98183610ea7565b508680610abb565b85513d89823e3d90fd5b5091939073ffffffffffffffffffffffffffffffffffffffff7f00000000000000000000000000000000000000000000000000000000000000001694610b7f8460011c8095611005565b92863b156106a15790859183519485927f42966c680000000000000000000000000000000000000000000000000000000084528301528183895af1908115610be75750610bd4575b50610476919233906112f0565b91610be161047693610e48565b91610bc7565b513d85823e3d90fd5b9091929396610c2d6bffffffffffffffffffffffff610c0f8a85611086565b5116610c1b8a87611086565b51610c268b87611086565b51916110c9565b610c378885611086565b518101809111610c5457610c4b9097611059565b93929190610a12565b8b8b60118c7f4e487b7100000000000000000000000000000000000000000000000000000000835252fd5b8787517f6baf460f000000000000000000000000000000000000000000000000000000008152fd5b508051831415610a06565b8335828111610cd9578891610cce8f9284933691880101610f00565b8152019301926109e2565b8c80fd5b8a80fd5b8780fd5b823581529181019186910161098c565b8980fd5b8680fd5b81356bffffffffffffffffffffffff81168103610cf5578152908401908401610936565b8880fd5b90503461022457826003193601126102245773ffffffffffffffffffffffffffffffffffffffff91828454163303610dab5750506001547fffffffffffffffffffffffff0000000000000000000000000000000000000000811660015516337fe83a760af9d3c86797ea13c8979010086f067cfe3c985b2d03d951248600c50f8380a380f35b517f021943c0000000000000000000000000000000000000000000000000000000008152fd5b9291503461048d578160031936011261048d576024359073ffffffffffffffffffffffffffffffffffffffff821680920361039d573584526003602090815282852091855290815292205460ff1615158152f35b6004359073ffffffffffffffffffffffffffffffffffffffff821682036104ba57565b67ffffffffffffffff8111610e5c57604052565b7f4e487b7100000000000000000000000000000000000000000000000000000000600052604160045260246000fd5b6040810190811067ffffffffffffffff821117610e5c57604052565b90601f7fffffffffffffffffffffffffffffffffffffffffffffffffffffffffffffffe0910116810190811067ffffffffffffffff821117610e5c57604052565b67ffffffffffffffff8111610e5c5760051b60200190565b81601f820112156104ba57803591610f1783610ee8565b92610f256040519485610ea7565b808452602092838086019260051b8201019283116104ba578301905b828210610f4f575050505090565b81358152908301908301610f41565b6064359081151582036104ba57565b67ffffffffffffffff8111610e5c57601f017fffffffffffffffffffffffffffffffffffffffffffffffffffffffffffffffe01660200190565b919082519283825260005b848110610ff15750507fffffffffffffffffffffffffffffffffffffffffffffffffffffffffffffffe0601f8460006020809697860101520116010190565b602081830181015184830182015201610fb2565b9190820391821161101257565b7f4e487b7100000000000000000000000000000000000000000000000000000000600052601160045260246000fd5b908160209103126104ba575180151581036104ba5790565b7fffffffffffffffffffffffffffffffffffffffffffffffffffffffffffffffff81146110125760010190565b805182101561109a5760209160051b010190565b7f4e487b7100000000000000000000000000000000000000000000000000000000600052603260045260246000fd5b916bffffffffffffffffffffffff60045460a01c9316928310156111df576000838152600360205260409182822033835260205260ff83832054166111b65761111490848633611209565b1561118d5791818492847feb4519870fa7626de5de575c2e304fd7cb1971422f610086dae7851c87f912b8966060965260036020528181203382526020522060017fffffffffffffffffffffffffffffffffffffffffffffffffffffffffffffff008254161790558051923384526020840152820152a1565b600482517f5544ed63000000000000000000000000000000000000000000000000000000008152fd5b600483517ffbeb1a96000000000000000000000000000000000000000000000000000000008152fd5b60046040517f462a91c9000000000000000000000000000000000000000000000000000000008152fd5b91929360409283516112748161124860209889830195866020909392919373ffffffffffffffffffffffffffffffffffffffff60408201951681520152565b037fffffffffffffffffffffffffffffffffffffffffffffffffffffffffffffffe08101835282610ea7565b519020835185810191825285815261128b81610e8b565b5190209360009283526002815283832054949183925b87518410156112e5576112b48489611086565b5190818110156112d557855282526112cf8585205b93611059565b926112a1565b90855282526112cf8585206112c9565b945095505050501490565b6114039160008073ffffffffffffffffffffffffffffffffffffffff604051946113998661136d60209a8b8301987fa9059cbb000000000000000000000000000000000000000000000000000000008a52602484016020909392919373ffffffffffffffffffffffffffffffffffffffff60408201951681520152565b037fffffffffffffffffffffffffffffffffffffffffffffffffffffffffffffffe08101885287610ea7565b1692604051946113a886610e8b565b8786527f5361666545524332303a206c6f772d6c6576656c2063616c6c206661696c656488870152519082855af13d156114b8573d916113e783610f6d565b926113f56040519485610ea7565b83523d60008785013e6114bc565b8051908282159283156114a0575b5050501561141c5750565b608490604051907f08c379a00000000000000000000000000000000000000000000000000000000082526004820152602a60248201527f5361666545524332303a204552433230206f7065726174696f6e20646964206e60448201527f6f742073756363656564000000000000000000000000000000000000000000006064820152fd5b6114b09350820181019101611041565b388281611411565b6060915b9192901561153757508151156114d0575090565b3b156114d95790565b60646040517f08c379a000000000000000000000000000000000000000000000000000000000815260206004820152601d60248201527f416464726573733a2063616c6c20746f206e6f6e2d636f6e74726163740000006044820152fd5b82519091501561154a5750805190602001fd5b611588906040519182917f08c379a0000000000000000000000000000000000000000000000000000000008352602060048401526024830190610fa7565b0390fdfea2646970667358221220651d470d899b64637a426eaeae82424fad965194d3dad115dfa45dda649efd8a64736f6c63430008130033",
  "linkReferences": {},
  "deployedLinkReferences": {}
}