{
  "_format": "hh-sol-artifact-1",
  "contractName": "JAssetRewardVesting",
  "sourceName": "contracts/JAssetRewardVesting.sol",
  "abi": [
    {
      "inputs": [
        {
          "internalType": "address",
          "name": "_owner",
          "type": "address"
        },
        {
          "internalType": "address",
          "name": "_pendingOwner",
          "type": "address"
        },
        {
          "internalType": "address",
          "name": "_rewardContract",
          "type": "address"
        },
        {
          "internalType": "address",
          "name": "_jellyToken",
          "type": "address"
        }
      ],
      "stateMutability": "nonpayable",
      "type": "constructor"
    },
    {
      "inputs": [],
      "name": "Ownable__CallerIsNotOwner",
      "type": "error"
    },
    {
      "inputs": [],
      "name": "Ownable__CannotSetOwnerToZeroAddress",
      "type": "error"
    },
    {
      "inputs": [],
      "name": "Ownable__CannotTransferToSelf",
      "type": "error"
    },
    {
      "inputs": [],
      "name": "Ownable__MustBeProposedOwner",
      "type": "error"
    },
    {
      "inputs": [],
      "name": "Vest__AlreadyVested",
      "type": "error"
    },
    {
      "inputs": [],
      "name": "Vest__InvalidCaller",
      "type": "error"
    },
    {
      "inputs": [],
      "name": "Vest__InvalidVestingAmount",
      "type": "error"
    },
    {
      "inputs": [],
      "name": "Vest__NothingToClaim",
      "type": "error"
    },
    {
      "inputs": [],
      "name": "Vest__ZeroAddress",
      "type": "error"
    },
    {
      "anonymous": false,
      "inputs": [
        {
          "indexed": true,
          "internalType": "address",
          "name": "from",
          "type": "address"
        },
        {
          "indexed": true,
          "internalType": "address",
          "name": "to",
          "type": "address"
        }
      ],
      "name": "OwnershipTransferCanceled",
      "type": "event"
    },
    {
      "anonymous": false,
      "inputs": [
        {
          "indexed": true,
          "internalType": "address",
          "name": "from",
          "type": "address"
        },
        {
          "indexed": true,
          "internalType": "address",
          "name": "to",
          "type": "address"
        }
      ],
      "name": "OwnershipTransferRequested",
      "type": "event"
    },
    {
      "anonymous": false,
      "inputs": [
        {
          "indexed": true,
          "internalType": "address",
          "name": "from",
          "type": "address"
        },
        {
          "indexed": true,
          "internalType": "address",
          "name": "to",
          "type": "address"
        }
      ],
      "name": "OwnershipTransferred",
      "type": "event"
    },
    {
      "anonymous": false,
      "inputs": [
        {
          "indexed": false,
          "internalType": "uint256",
          "name": "amount",
          "type": "uint256"
        },
        {
          "indexed": false,
          "internalType": "address",
          "name": "beneficiary",
          "type": "address"
        }
      ],
      "name": "VestedRewards",
      "type": "event"
    },
    {
      "anonymous": false,
      "inputs": [
        {
          "indexed": false,
          "internalType": "uint256",
          "name": "amount",
          "type": "uint256"
        },
        {
          "indexed": false,
          "internalType": "address",
          "name": "beneficiary",
          "type": "address"
        }
      ],
      "name": "VestingClaimed",
      "type": "event"
    },
    {
      "inputs": [],
      "name": "acceptOwnership",
      "outputs": [],
      "stateMutability": "nonpayable",
      "type": "function"
    },
    {
      "inputs": [],
      "name": "cancelOwnershipTransfer",
      "outputs": [],
      "stateMutability": "nonpayable",
      "type": "function"
    },
    {
      "inputs": [],
      "name": "claimRewards",
      "outputs": [],
      "stateMutability": "nonpayable",
      "type": "function"
    },
    {
      "inputs": [],
      "name": "getPendingOwner",
      "outputs": [
        {
          "internalType": "address",
          "name": "",
          "type": "address"
        }
      ],
      "stateMutability": "view",
      "type": "function"
    },
    {
      "inputs": [],
      "name": "jellyToken",
      "outputs": [
        {
          "internalType": "contract IJellyToken",
          "name": "",
          "type": "address"
        }
      ],
      "stateMutability": "view",
      "type": "function"
    },
    {
      "inputs": [],
      "name": "owner",
      "outputs": [
        {
          "internalType": "address",
          "name": "",
          "type": "address"
        }
      ],
      "stateMutability": "view",
      "type": "function"
    },
    {
      "inputs": [],
      "name": "rewardContract",
      "outputs": [
        {
          "internalType": "address",
          "name": "",
          "type": "address"
        }
      ],
      "stateMutability": "view",
      "type": "function"
    },
    {
      "inputs": [
        {
          "internalType": "address",
          "name": "newOwner",
          "type": "address"
        }
      ],
      "name": "transferOwnership",
      "outputs": [],
      "stateMutability": "nonpayable",
      "type": "function"
    },
    {
      "inputs": [
        {
          "internalType": "uint256",
          "name": "_amount",
          "type": "uint256"
        },
        {
          "internalType": "address",
          "name": "_beneficiary",
          "type": "address"
        }
      ],
      "name": "vestRewards",
      "outputs": [],
      "stateMutability": "nonpayable",
      "type": "function"
    },
    {
      "inputs": [
        {
          "internalType": "address",
          "name": "_beneficiary",
          "type": "address"
        }
      ],
      "name": "vestedAmount",
      "outputs": [
        {
          "internalType": "uint256",
          "name": "amount",
          "type": "uint256"
        }
      ],
      "stateMutability": "view",
      "type": "function"
    },
    {
      "inputs": [
        {
          "internalType": "address",
          "name": "",
          "type": "address"
        }
      ],
      "name": "vestedPositions",
      "outputs": [
        {
          "internalType": "uint256",
          "name": "vestedAmount",
          "type": "uint256"
        },
        {
          "internalType": "uint48",
          "name": "startTime",
          "type": "uint48"
        }
      ],
      "stateMutability": "view",
      "type": "function"
    }
  ],
  "bytecode": "0x60c0346200015b57601f6200100938819003918201601f191683019291906001600160401b03841183851017620001605781608092849260409687528339810103126200015b57620000518162000176565b90620000606020820162000176565b906200007c60606200007486840162000176565b920162000176565b6001600160a01b039390929084169081156200014a57600080546001600160a01b0319908116909317905584169081158015620000f3575b5050506080521660a05251610e7d90816200018c82396080518181816102ff0152610405015260a05181818161035001528181610522015261073f0152f35b6200014a57338214620001395781906001541617600155337fed8889f560326eb138920d842192f0eb3dd22b4f139c87a2c57538e05bae1278600080a3388080620000b4565b8551631ee7a57760e01b8152600490fd5b855163a3c419a160e01b8152600490fd5b600080fd5b634e487b7160e01b600052604160045260246000fd5b51906001600160a01b03821682036200015b5756fe6080604081815260048036101561001557600080fd5b600092833560e01c90816323452b9c146108db57508063372500ab146106fb578063384711cc146106ce5780634f56392d146103ca5780635fd98ffd146103745780636904afd4146103235780636ea69d62146102d257806379ba50971461021c5780638da5cb5b146101e957806393596c7b146101b05763f2fde38b1461009c57600080fd5b346101ac5760206003193601126101ac576100b5610987565b73ffffffffffffffffffffffffffffffffffffffff90818554163303610184571691821561015e57338314610138575050807fffffffffffffffffffffffff00000000000000000000000000000000000000006001541617600155337fed8889f560326eb138920d842192f0eb3dd22b4f139c87a2c57538e05bae12788380a380f35b517f1ee7a577000000000000000000000000000000000000000000000000000000008152fd5b517fa3c419a1000000000000000000000000000000000000000000000000000000008152fd5b8284517f021943c0000000000000000000000000000000000000000000000000000000008152fd5b8280fd5b5050346101e557816003193601126101e55760209073ffffffffffffffffffffffffffffffffffffffff600154169051908152f35b5080fd5b5050346101e557816003193601126101e55773ffffffffffffffffffffffffffffffffffffffff60209254169051908152f35b5090346101ac57826003193601126101ac576001549173ffffffffffffffffffffffffffffffffffffffff9182841633036102ac57505082547fffffffffffffffffffffffff00000000000000000000000000000000000000008082163390811786559316600155167f8be0079c531659141344cd1fd0a4f28419497f9722a3daafe3b4186f6b6457e08380a380f35b517f4ecbaa2e000000000000000000000000000000000000000000000000000000008152fd5b5050346101e557816003193601126101e5576020905173ffffffffffffffffffffffffffffffffffffffff7f0000000000000000000000000000000000000000000000000000000000000000168152f35b5050346101e557816003193601126101e5576020905173ffffffffffffffffffffffffffffffffffffffff7f0000000000000000000000000000000000000000000000000000000000000000168152f35b5050346101e55760206003193601126101e557809173ffffffffffffffffffffffffffffffffffffffff6103a6610987565b16815260026020522065ffffffffffff600182549201541682519182526020820152f35b508290346101e557826003193601126101e55780356024359173ffffffffffffffffffffffffffffffffffffffff8084168085036106c957817f00000000000000000000000000000000000000000000000000000000000000001633036106a157831561067957801561065157808652600260205286862054610629578086526002602052838787205565ffffffffffff908142116105a657865260026020526001878720019042167fffffffffffffffffffffffffffffffffffffffffffffffffffff0000000000008254161790558551917f23b872dd0000000000000000000000000000000000000000000000000000000060208401523360248401523060448401528360648401526064835260a083019083821067ffffffffffffffff8311176105785750610572928792610547927fa68c6ca28416be338c5e77c8970584b71c9fa2282c68be53d0097951ddd4d8089899527f000000000000000000000000000000000000000000000000000000000000000016610aef565b5191825273ffffffffffffffffffffffffffffffffffffffff90921660208201529081906040820190565b0390a180f35b6041907f4e487b71000000000000000000000000000000000000000000000000000000006000525260246000fd5b60848460208a51917f08c379a0000000000000000000000000000000000000000000000000000000008352820152602660248201527f53616665436173743a2076616c756520646f65736e27742066697420696e203460448201527f38206269747300000000000000000000000000000000000000000000000000006064820152fd5b8287517f54e7ddbc000000000000000000000000000000000000000000000000000000008152fd5b8287517f956b8f62000000000000000000000000000000000000000000000000000000008152fd5b8287517fcbe40e9f000000000000000000000000000000000000000000000000000000008152fd5b8287517f0654f84a000000000000000000000000000000000000000000000000000000008152fd5b600080fd5b5050346101e55760206003193601126101e5576020906106f46106ef610987565b6109e6565b9051908152f35b5090346101ac57826003193601126101ac57338352600260205280832054156108b557610727336109e6565b9173ffffffffffffffffffffffffffffffffffffffff7f000000000000000000000000000000000000000000000000000000000000000016338552600260205261077484848720546109aa565b813b156108b1578351907f42966c6800000000000000000000000000000000000000000000000000000000825283820152858160248183865af180156108a757610860575b50338552600260205284838120558251917fa9059cbb00000000000000000000000000000000000000000000000000000000602084015233602484015284604484015260448352608083019083821067ffffffffffffffff83111761057857507f4fd3f69685a732a71c10847d4d88278d0dfff1ada2e43be7d01cba7f631a6da59492849261084c926105729652610aef565b519081523360208201529081906040820190565b67ffffffffffffffff819692961161087b57835293386107b9565b5060416024927f4e487b7100000000000000000000000000000000000000000000000000000000835252fd5b84513d88823e3d90fd5b8580fd5b517fecd4a03f000000000000000000000000000000000000000000000000000000008152fd5b925050346101ac57826003193601126101ac5773ffffffffffffffffffffffffffffffffffffffff918284541633036109625750506001547fffffffffffffffffffffffff0000000000000000000000000000000000000000811660015516337fe83a760af9d3c86797ea13c8979010086f067cfe3c985b2d03d951248600c50f8380a380f35b7f021943c0000000000000000000000000000000000000000000000000000000008152fd5b6004359073ffffffffffffffffffffffffffffffffffffffff821682036106c957565b919082039182116109b757565b7f4e487b7100000000000000000000000000000000000000000000000000000000600052601160045260246000fd5b73ffffffffffffffffffffffffffffffffffffffff6000911681526002602052604081209065ffffffffffff90816001840154169162278d0090818401818111610ac257164210610a38575050505490565b909192610a4a905460011c93426109aa565b808402908482041484151715610a9557048201809211610a68575090565b807f4e487b7100000000000000000000000000000000000000000000000000000000602492526011600452fd5b6024837f4e487b710000000000000000000000000000000000000000000000000000000081526011600452fd5b6024847f4e487b710000000000000000000000000000000000000000000000000000000081526011600452fd5b73ffffffffffffffffffffffffffffffffffffffff909291921660408051938185019467ffffffffffffffff9581811087821117610cf65783526020938482527f5361666545524332303a206c6f772d6c6576656c2063616c6c206661696c6564858301526000808487829651910182855af13d15610ce5573d91888311610cb8578551927fffffffffffffffffffffffffffffffffffffffffffffffffffffffffffffffe0603f81601f8401160116840199848b10908b1117610c8b5786979899610bc596975283528286893d92013e610d25565b805191821591858315610c64575b505050905015610be1575050565b6084925051907f08c379a00000000000000000000000000000000000000000000000000000000082526004820152602a60248201527f5361666545524332303a204552433230206f7065726174696f6e20646964206e60448201527f6f742073756363656564000000000000000000000000000000000000000000006064820152fd5b9193818094500103126101e557830151908115158203610c88575080388085610bd3565b80fd5b6024867f4e487b710000000000000000000000000000000000000000000000000000000081526041600452fd5b6024857f4e487b710000000000000000000000000000000000000000000000000000000081526041600452fd5b610bc5939495969750606091610d25565b7f4e487b7100000000000000000000000000000000000000000000000000000000600052604160045260246000fd5b91929015610da05750815115610d39575090565b3b15610d425790565b60646040517f08c379a000000000000000000000000000000000000000000000000000000000815260206004820152601d60248201527f416464726573733a2063616c6c20746f206e6f6e2d636f6e74726163740000006044820152fd5b825190915015610db35750805190602001fd5b604051907f08c379a000000000000000000000000000000000000000000000000000000000825281602080600483015282519283602484015260005b848110610e30575050507fffffffffffffffffffffffffffffffffffffffffffffffffffffffffffffffe0601f836000604480968601015201168101030190fd5b818101830151868201604401528593508201610def56fea26469706673582212207e462c6da0f0842712ac62caaee3d17352410bed63afee013dbfd4932dfb7d8864736f6c63430008130033",
  "linkReferences": {},
  "deployedLinkReferences": {}
}